{
  "contractName": "ShareARideContract",
  "abi": [
    {
      "anonymous": false,
      "inputs": [
        {
          "indexed": false,
          "internalType": "uint256",
          "name": "rideId",
          "type": "uint256"
        },
        {
          "indexed": false,
          "internalType": "address payable",
          "name": "driver",
          "type": "address"
        },
        {
          "indexed": false,
          "internalType": "string",
          "name": "origin",
          "type": "string"
        },
        {
          "indexed": false,
          "internalType": "string",
          "name": "destination",
          "type": "string"
        },
        {
          "indexed": false,
          "internalType": "string",
          "name": "departureDate",
          "type": "string"
        },
        {
          "indexed": false,
          "internalType": "uint256",
          "name": "departureTime",
          "type": "uint256"
        },
        {
          "indexed": false,
          "internalType": "uint256",
          "name": "seatLimit",
          "type": "uint256"
        },
        {
          "indexed": false,
          "internalType": "uint256",
          "name": "availableSeats",
          "type": "uint256"
        },
        {
          "indexed": false,
          "internalType": "uint256",
          "name": "pricePerSeat",
          "type": "uint256"
        }
      ],
      "name": "RideCreated",
      "type": "event"
    },
    {
      "anonymous": false,
      "inputs": [
        {
          "indexed": false,
          "internalType": "uint256",
          "name": "rideId",
          "type": "uint256"
        },
        {
          "indexed": false,
          "internalType": "address payable",
          "name": "driver",
          "type": "address"
        },
        {
          "indexed": false,
          "internalType": "string",
          "name": "origin",
          "type": "string"
        },
        {
          "indexed": false,
          "internalType": "string",
          "name": "destination",
          "type": "string"
        },
        {
          "indexed": false,
          "internalType": "string",
          "name": "departureDate",
          "type": "string"
        },
        {
          "indexed": false,
          "internalType": "uint256",
          "name": "departureTime",
          "type": "uint256"
        },
        {
          "indexed": false,
          "internalType": "uint256",
          "name": "seatLimit",
          "type": "uint256"
        },
        {
          "indexed": false,
          "internalType": "uint256",
          "name": "availableSeats",
          "type": "uint256"
        },
        {
          "indexed": false,
          "internalType": "uint256",
          "name": "pricePerSeat",
          "type": "uint256"
        }
      ],
      "name": "RideRequested",
      "type": "event"
    },
    {
      "constant": true,
      "inputs": [
        {
          "internalType": "uint256",
          "name": "",
          "type": "uint256"
        }
      ],
      "name": "rides",
      "outputs": [
        {
          "internalType": "uint256",
          "name": "rideId",
          "type": "uint256"
        },
        {
          "internalType": "address payable",
          "name": "driver",
          "type": "address"
        },
        {
          "internalType": "string",
          "name": "origin",
          "type": "string"
        },
        {
          "internalType": "string",
          "name": "destination",
          "type": "string"
        },
        {
          "internalType": "string",
          "name": "departureDate",
          "type": "string"
        },
        {
          "internalType": "uint256",
          "name": "departureTime",
          "type": "uint256"
        },
        {
          "internalType": "uint256",
          "name": "seatLimit",
          "type": "uint256"
        },
        {
          "internalType": "uint256",
          "name": "availableSeats",
          "type": "uint256"
        },
        {
          "internalType": "uint256",
          "name": "pricePerSeat",
          "type": "uint256"
        }
      ],
      "payable": false,
      "stateMutability": "view",
      "type": "function"
    },
    {
      "constant": true,
      "inputs": [],
      "name": "ridesCount",
      "outputs": [
        {
          "internalType": "uint256",
          "name": "",
          "type": "uint256"
        }
      ],
      "payable": false,
      "stateMutability": "view",
      "type": "function"
    },
    {
      "constant": false,
      "inputs": [
        {
          "internalType": "string",
          "name": "_origin",
          "type": "string"
        },
        {
          "internalType": "string",
          "name": "_destination",
          "type": "string"
        },
        {
          "internalType": "string",
          "name": "_departureDate",
          "type": "string"
        },
        {
          "internalType": "uint256",
          "name": "_departureTime",
          "type": "uint256"
        },
        {
          "internalType": "uint256",
          "name": "_seatLimit",
          "type": "uint256"
        },
        {
          "internalType": "uint256",
          "name": "_availableSeats",
          "type": "uint256"
        },
        {
          "internalType": "uint256",
          "name": "_pricePerSeat",
          "type": "uint256"
        }
      ],
      "name": "createRide",
      "outputs": [],
      "payable": false,
      "stateMutability": "nonpayable",
      "type": "function"
    },
    {
      "constant": true,
      "inputs": [],
      "name": "getRidesCount",
      "outputs": [
        {
          "internalType": "uint256",
          "name": "",
          "type": "uint256"
        }
      ],
      "payable": false,
      "stateMutability": "view",
      "type": "function"
    },
    {
      "constant": false,
      "inputs": [
        {
          "internalType": "uint256",
          "name": "_id",
          "type": "uint256"
        }
      ],
      "name": "requestRide",
      "outputs": [],
      "payable": true,
      "stateMutability": "payable",
      "type": "function"
    }
  ],
  "bytecode": "0x60806040526000805534801561001457600080fd5b50611196806100246000396000f3fe60806040526004361061004a5760003560e01c80631bcda7771461004f5780635205f1121461007a5780639327b0771461025c578063e0f1b7121461028a578063e675678e146104a8575b600080fd5b34801561005b57600080fd5b506100646104d3565b6040518082815260200191505060405180910390f35b34801561008657600080fd5b506100b36004803603602081101561009d57600080fd5b81019080803590602001909291905050506104d9565b604051808a81526020018973ffffffffffffffffffffffffffffffffffffffff1673ffffffffffffffffffffffffffffffffffffffff16815260200180602001806020018060200188815260200187815260200186815260200185815260200184810384528b818151815260200191508051906020019080838360005b8381101561014b578082015181840152602081019050610130565b50505050905090810190601f1680156101785780820380516001836020036101000a031916815260200191505b5084810383528a818151815260200191508051906020019080838360005b838110156101b1578082015181840152602081019050610196565b50505050905090810190601f1680156101de5780820380516001836020036101000a031916815260200191505b50848103825289818151815260200191508051906020019080838360005b838110156102175780820151818401526020810190506101fc565b50505050905090810190601f1680156102445780820380516001836020036101000a031916815260200191505b509c5050505050505050505050505060405180910390f35b6102886004803603602081101561027257600080fd5b810190808035906020019092919050505061070f565b005b34801561029657600080fd5b506104a6600480360360e08110156102ad57600080fd5b81019080803590602001906401000000008111156102ca57600080fd5b8201836020820111156102dc57600080fd5b803590602001918460018302840111640100000000831117156102fe57600080fd5b91908080601f016020809104026020016040519081016040528093929190818152602001838380828437600081840152601f19601f8201169050808301925050505050505091929192908035906020019064010000000081111561036157600080fd5b82018360208201111561037357600080fd5b8035906020019184600183028401116401000000008311171561039557600080fd5b91908080601f016020809104026020016040519081016040528093929190818152602001838380828437600081840152601f19601f820116905080830192505050505050509192919290803590602001906401000000008111156103f857600080fd5b82018360208201111561040a57600080fd5b8035906020019184600183028401116401000000008311171561042c57600080fd5b91908080601f016020809104026020016040519081016040528093929190818152602001838380828437600081840152601f19601f82011690508083019250505050505050919291929080359060200190929190803590602001909291908035906020019092919080359060200190929190505050610d23565b005b3480156104b457600080fd5b506104bd611051565b6040518082815260200191505060405180910390f35b60005481565b60016020528060005260406000206000915090508060000154908060010160009054906101000a900473ffffffffffffffffffffffffffffffffffffffff1690806002018054600181600116156101000203166002900480601f0160208091040260200160405190810160405280929190818152602001828054600181600116156101000203166002900480156105b15780601f10610586576101008083540402835291602001916105b1565b820191906000526020600020905b81548152906001019060200180831161059457829003601f168201915b505050505090806003018054600181600116156101000203166002900480601f01602080910402602001604051908101604052809291908181526020018280546001816001161561010002031660029004801561064f5780601f106106245761010080835404028352916020019161064f565b820191906000526020600020905b81548152906001019060200180831161063257829003601f168201915b505050505090806004018054600181600116156101000203166002900480601f0160208091040260200160405190810160405280929190818152602001828054600181600116156101000203166002900480156106ed5780601f106106c2576101008083540402835291602001916106ed565b820191906000526020600020905b8154815290600101906020018083116106d057829003601f168201915b5050505050908060050154908060060154908060070154908060080154905089565b61071761105a565b6001600083815260200190815260200160002060405180610120016040529081600082015481526020016001820160009054906101000a900473ffffffffffffffffffffffffffffffffffffffff1673ffffffffffffffffffffffffffffffffffffffff1673ffffffffffffffffffffffffffffffffffffffff168152602001600282018054600181600116156101000203166002900480601f01602080910402602001604051908101604052809291908181526020018280546001816001161561010002031660029004801561082f5780601f106108045761010080835404028352916020019161082f565b820191906000526020600020905b81548152906001019060200180831161081257829003601f168201915b50505050508152602001600382018054600181600116156101000203166002900480601f0160208091040260200160405190810160405280929190818152602001828054600181600116156101000203166002900480156108d15780601f106108a6576101008083540402835291602001916108d1565b820191906000526020600020905b8154815290600101906020018083116108b457829003601f168201915b50505050508152602001600482018054600181600116156101000203166002900480601f0160208091040260200160405190810160405280929190818152602001828054600181600116156101000203166002900480156109735780601f1061094857610100808354040283529160200191610973565b820191906000526020600020905b81548152906001019060200180831161095657829003601f168201915b50505050508152602001600582015481526020016006820154815260200160078201548152602001600882015481525050905060008160e001511115610a21576040517f08c379a00000000000000000000000000000000000000000000000000000000081526004018080602001828103825260128152602001807f4e6f20617661696c61626c65207365617473000000000000000000000000000081525060200191505060405180910390fd5b806020015173ffffffffffffffffffffffffffffffffffffffff163373ffffffffffffffffffffffffffffffffffffffff161415610ac7576040517f08c379a00000000000000000000000000000000000000000000000000000000081526004018080602001828103825260128152602001807f596f75206172652074686520647269766572000000000000000000000000000081525060200191505060405180910390fd5b806020015173ffffffffffffffffffffffffffffffffffffffff166108fc8261010001519081150290604051600060405180830381858888f19350505050158015610b16573d6000803e3d6000fd5b508060e001805180919060019003815250507fd4711b20dabe015112ab083514b5704d83f9b895d4ef83e01384ddaa7e792d67816000015182602001518360400151846060015185608001518660a001518760c001518860e00151896101000151604051808a81526020018973ffffffffffffffffffffffffffffffffffffffff1673ffffffffffffffffffffffffffffffffffffffff16815260200180602001806020018060200188815260200187815260200186815260200185815260200184810384528b818151815260200191508051906020019080838360005b83811015610c0f578082015181840152602081019050610bf4565b50505050905090810190601f168015610c3c5780820380516001836020036101000a031916815260200191505b5084810383528a818151815260200191508051906020019080838360005b83811015610c75578082015181840152602081019050610c5a565b50505050905090810190601f168015610ca25780820380516001836020036101000a031916815260200191505b50848103825289818151815260200191508051906020019080838360005b83811015610cdb578082015181840152602081019050610cc0565b50505050905090810190601f168015610d085780820380516001836020036101000a031916815260200191505b509c5050505050505050505050505060405180910390a15050565b600080815480929190600101919050555060405180610120016040528060005481526020013373ffffffffffffffffffffffffffffffffffffffff1681526020018881526020018781526020018681526020018581526020018481526020018381526020018281525060016000805481526020019081526020016000206000820151816000015560208201518160010160006101000a81548173ffffffffffffffffffffffffffffffffffffffff021916908373ffffffffffffffffffffffffffffffffffffffff1602179055506040820151816002019080519060200190610e0d9291906110bc565b506060820151816003019080519060200190610e2a9291906110bc565b506080820151816004019080519060200190610e479291906110bc565b5060a0820151816005015560c0820151816006015560e0820151816007015561010082015181600801559050507f0356de66887755b98925631c925a2fedfd3be295d1f920dd93cba7a7e812a50c6000543389898989898989604051808a81526020018973ffffffffffffffffffffffffffffffffffffffff1673ffffffffffffffffffffffffffffffffffffffff16815260200180602001806020018060200188815260200187815260200186815260200185815260200184810384528b818151815260200191508051906020019080838360005b83811015610f38578082015181840152602081019050610f1d565b50505050905090810190601f168015610f655780820380516001836020036101000a031916815260200191505b5084810383528a818151815260200191508051906020019080838360005b83811015610f9e578082015181840152602081019050610f83565b50505050905090810190601f168015610fcb5780820380516001836020036101000a031916815260200191505b50848103825289818151815260200191508051906020019080838360005b83811015611004578082015181840152602081019050610fe9565b50505050905090810190601f1680156110315780820380516001836020036101000a031916815260200191505b509c5050505050505050505050505060405180910390a150505050505050565b60008054905090565b60405180610120016040528060008152602001600073ffffffffffffffffffffffffffffffffffffffff168152602001606081526020016060815260200160608152602001600081526020016000815260200160008152602001600081525090565b828054600181600116156101000203166002900490600052602060002090601f016020900481019282601f106110fd57805160ff191683800117855561112b565b8280016001018555821561112b579182015b8281111561112a57825182559160200191906001019061110f565b5b509050611138919061113c565b5090565b61115e91905b8082111561115a576000816000905550600101611142565b5090565b9056fea265627a7a72315820951305c74c2bd60196b4c8dfb4195b927a6f56c56febf35ca0a95a2cdeb9e63d64736f6c63430005100032",
  "source": "// SPDX-License-Identifier: MIT\r\npragma solidity ^0.5.11;\r\n\r\ncontract ShareARideContract {\r\n    struct Ride {\r\n        uint rideId;\r\n        address payable driver;\r\n        string origin;\r\n        string destination;\r\n        string departureDate;\r\n        uint256 departureTime;\r\n        uint256 seatLimit;\r\n        uint256 availableSeats;\r\n        uint256 pricePerSeat;\r\n    }\r\n\r\n    // Ride[] public rides;\r\n    uint public ridesCount = 0;\r\n    mapping(uint => Ride) public rides;\r\n\r\n\r\n    // Ride Creation Event\r\n\r\n    event RideCreated(\r\n        uint rideId,\r\n        address payable driver,\r\n        string origin,\r\n        string destination,\r\n        string departureDate,\r\n        uint256 departureTime,\r\n        uint256 seatLimit,\r\n        uint256 availableSeats,\r\n        uint256 pricePerSeat\r\n    );\r\n\r\n    event RideRequested(\r\n        uint rideId,\r\n        address payable driver,\r\n        string origin,\r\n        string destination,\r\n        string departureDate,\r\n        uint256 departureTime,\r\n        uint256 seatLimit,\r\n        uint256 availableSeats,\r\n        uint256 pricePerSeat\r\n    );\r\n\r\n    function createRide(\r\n        string memory _origin,\r\n        string memory _destination,\r\n        string memory _departureDate,\r\n        uint256 _departureTime,\r\n        uint256 _seatLimit,\r\n        uint256 _availableSeats,\r\n        uint256 _pricePerSeat\r\n        ) public {\r\n\r\n        ridesCount ++;\r\n        rides[ridesCount] = Ride(\r\n            ridesCount,\r\n            msg.sender,\r\n            _origin,\r\n            _destination,\r\n            _departureDate,\r\n            _departureTime,\r\n            _seatLimit,\r\n            _availableSeats,\r\n            _pricePerSeat\r\n        );\r\n        \r\n        emit RideCreated(\r\n            ridesCount,\r\n            msg.sender,\r\n            _origin,\r\n            _destination,\r\n            _departureDate,\r\n            _departureTime,\r\n            _seatLimit,\r\n            _availableSeats,\r\n            _pricePerSeat\r\n        );\r\n\r\n\r\n    }\r\n\r\n    function getRidesCount() public view returns (uint) {\r\n        // return rides.length;\r\n        return ridesCount;\r\n    }\r\n\r\n    function requestRide(uint _id)  public payable {\r\n        //Fetch RIde\r\n        Ride memory _ride = rides[_id];\r\n        //Check if ride is available\r\n        require(_ride.availableSeats <= 0, \"No available seats\");\r\n        //Check if user is not the driver\r\n        require(msg.sender != _ride.driver, \"You are the driver\");\r\n\r\n        //Transfer money to driver\r\n        _ride.driver.transfer(_ride.pricePerSeat);\r\n        //Decrement available seats\r\n        _ride.availableSeats --;\r\n        \r\n\r\n        emit RideRequested(\r\n            _ride.rideId,\r\n            _ride.driver,\r\n            _ride.origin,\r\n            _ride.destination,\r\n            _ride.departureDate,\r\n            _ride.departureTime,\r\n            _ride.seatLimit,\r\n            _ride.availableSeats,\r\n            _ride.pricePerSeat\r\n        );\r\n\r\n    }\r\n\r\n    // function getRide()\r\n    //     public\r\n    //     view\r\n    //     returns (\r\n    //         uint,\r\n    //         address,\r\n    //         string memory,\r\n    //         string memory,\r\n    //         string memory,\r\n    //         uint256,\r\n    //         uint256,\r\n    //         uint256,\r\n    //         uint256\r\n    //     )\r\n    // {\r\n    //     Ride memory ride = rides[_index - 1];\r\n    //     return (\r\n    //         ride.rideId,\r\n    //         ride.driver,\r\n    //         ride.origin,\r\n    //         ride.destination,\r\n    //         ride.departureDate,\r\n    //         ride.departureTime,\r\n    //         ride.seatLimit,\r\n    //         ride.availableSeats,\r\n    //         ride.pricePerSeat\r\n    //     );\r\n    // }\r\n\r\n    // function bookSeat(uint256 _index) public payable {\r\n    //     Ride storage ride = rides[_index];\r\n    //     require(ride.availableSeats > 0, \"No available seats\");\r\n    //     require(msg.value == ride.pricePerSeat, \"Invalid price\");\r\n    //     ride.availableSeats--;\r\n    //     ride.driver.transfer(msg.value);\r\n    // }\r\n}",
  "sourcePath": "C:\\Users\\agnel\\OneDrive\\Documents\\Code\\Blockchain\\CarpoolingApp\\contracts\\ShareARideContract.sol",
  "compiler": {
    "name": "solc",
    "version": "0.5.16+commit.9c3226ce.Emscripten.clang"
  },
  "schemaVersion": "3.4.16",
  "updatedAt": "2024-08-08T19:48:31.605Z",
  "devdoc": {
    "methods": {}
  },
  "userdoc": {
    "methods": {}
  }
}