{
  "contractName": "ShareARide",
  "abi": [
    {
      "anonymous": false,
      "inputs": [
        {
          "indexed": false,
          "internalType": "uint256",
          "name": "rideId",
          "type": "uint256"
        },
        {
          "indexed": false,
          "internalType": "address",
          "name": "driver",
          "type": "address"
        },
        {
          "indexed": false,
          "internalType": "uint256",
          "name": "availableSeats",
          "type": "uint256"
        },
        {
          "indexed": false,
          "internalType": "uint256",
          "name": "pricePerSeat",
          "type": "uint256"
        }
      ],
      "name": "RideCreated",
      "type": "event"
    },
    {
      "anonymous": false,
      "inputs": [
        {
          "indexed": false,
          "internalType": "uint256",
          "name": "rideId",
          "type": "uint256"
        },
        {
          "indexed": false,
          "internalType": "address",
          "name": "passenger",
          "type": "address"
        }
      ],
      "name": "RideJoined",
      "type": "event"
    },
    {
      "constant": true,
      "inputs": [],
      "name": "rideCount",
      "outputs": [
        {
          "internalType": "uint256",
          "name": "",
          "type": "uint256"
        }
      ],
      "payable": false,
      "stateMutability": "view",
      "type": "function"
    },
    {
      "constant": true,
      "inputs": [
        {
          "internalType": "uint256",
          "name": "",
          "type": "uint256"
        }
      ],
      "name": "rides",
      "outputs": [
        {
          "internalType": "address",
          "name": "driver",
          "type": "address"
        },
        {
          "internalType": "uint256",
          "name": "availableSeats",
          "type": "uint256"
        },
        {
          "internalType": "uint256",
          "name": "pricePerSeat",
          "type": "uint256"
        }
      ],
      "payable": false,
      "stateMutability": "view",
      "type": "function"
    },
    {
      "constant": false,
      "inputs": [
        {
          "internalType": "uint256",
          "name": "_availableSeats",
          "type": "uint256"
        },
        {
          "internalType": "uint256",
          "name": "_pricePerSeat",
          "type": "uint256"
        }
      ],
      "name": "createRide",
      "outputs": [],
      "payable": false,
      "stateMutability": "nonpayable",
      "type": "function"
    },
    {
      "constant": false,
      "inputs": [
        {
          "internalType": "uint256",
          "name": "_rideId",
          "type": "uint256"
        }
      ],
      "name": "joinRide",
      "outputs": [],
      "payable": true,
      "stateMutability": "payable",
      "type": "function"
    }
  ],
  "bytecode": "0x608060405234801561001057600080fd5b50610743806100206000396000f3fe60806040526004361061003f5760003560e01c806301f32206146100445780635205f1121461007257806385a79173146100fb578063b47c188314610140575b600080fd5b6100706004803603602081101561005a57600080fd5b810190808035906020019092919050505061016b565b005b34801561007e57600080fd5b506100ab6004803603602081101561009557600080fd5b8101908080359060200190929190505050610498565b604051808473ffffffffffffffffffffffffffffffffffffffff1673ffffffffffffffffffffffffffffffffffffffff168152602001838152602001828152602001935050505060405180910390f35b34801561010757600080fd5b5061013e6004803603604081101561011e57600080fd5b8101908080359060200190929190803590602001909291905050506104e2565b005b34801561014c57600080fd5b506101556106e7565b6040518082815260200191505060405180910390f35b60008111801561017d57506001548111155b6101ef576040517f08c379a000000000000000000000000000000000000000000000000000000000815260040180806020018281038252600f8152602001807f496e76616c69642072696465204944000000000000000000000000000000000081525060200191505060405180910390fd5b60008060008381526020019081526020016000209050600081600101541161027f576040517f08c379a00000000000000000000000000000000000000000000000000000000081526004018080602001828103825260128152602001807f4e6f20617661696c61626c65207365617473000000000000000000000000000081525060200191505060405180910390fd5b8060030160003373ffffffffffffffffffffffffffffffffffffffff1673ffffffffffffffffffffffffffffffffffffffff16815260200190815260200160002060009054906101000a900460ff1615610341576040517f08c379a00000000000000000000000000000000000000000000000000000000081526004018080602001828103825260188152602001807f416c7265616479206a6f696e656420746869732072696465000000000000000081525060200191505060405180910390fd5b806002015434146103ba576040517f08c379a00000000000000000000000000000000000000000000000000000000081526004018080602001828103825260188152602001807f496e636f7272656374207061796d656e7420616d6f756e74000000000000000081525060200191505060405180910390fd5b80600101600081548092919060019003919050555060018160030160003373ffffffffffffffffffffffffffffffffffffffff1673ffffffffffffffffffffffffffffffffffffffff16815260200190815260200160002060006101000a81548160ff0219169083151502179055507fee6738d554505ae618a1d711a221fc0d52c5e1016cf0b42b9dc9f4d9456057ca8233604051808381526020018273ffffffffffffffffffffffffffffffffffffffff1673ffffffffffffffffffffffffffffffffffffffff1681526020019250505060405180910390a15050565b60006020528060005260406000206000915090508060000160009054906101000a900473ffffffffffffffffffffffffffffffffffffffff16908060010154908060020154905083565b6000821161053b576040517f08c379a00000000000000000000000000000000000000000000000000000000081526004018080602001828103825260218152602001806106ee6021913960400191505060405180910390fd5b600081116105b1576040517f08c379a00000000000000000000000000000000000000000000000000000000081526004018080602001828103825260168152602001807f496e76616c69642070726963652070657220736561740000000000000000000081525060200191505060405180910390fd5b60016000815480929190600101919050555060405180606001604052803373ffffffffffffffffffffffffffffffffffffffff16815260200183815260200182815250600080600154815260200190815260200160002060008201518160000160006101000a81548173ffffffffffffffffffffffffffffffffffffffff021916908373ffffffffffffffffffffffffffffffffffffffff16021790555060208201518160010155604082015181600201559050507f3db694c2ec334d24226dc173d5fce5eca9e77945ebac1560f2ec95bbcd06174f600154338484604051808581526020018473ffffffffffffffffffffffffffffffffffffffff1673ffffffffffffffffffffffffffffffffffffffff16815260200183815260200182815260200194505050505060405180910390a15050565b6001548156fe496e76616c6964206e756d626572206f6620617661696c61626c65207365617473a265627a7a72315820c80ca3dd52f63b2c65297098964124c2c7e655f5063c76941947b9a5058d070364736f6c63430005100032",
  "source": "// SPDX-License-Identifier: MIT\r\npragma solidity ^0.5.11;\r\n\r\ncontract ShareARide {\r\n    struct Ride {\r\n        address driver;\r\n        uint256 availableSeats;\r\n        uint256 pricePerSeat;\r\n        mapping(address => bool) passengers;\r\n    }\r\n\r\n    mapping(uint256 => Ride) public rides;\r\n    uint256 public rideCount;\r\n\r\n    event RideCreated(uint256 rideId, address driver, uint256 availableSeats, uint256 pricePerSeat);\r\n    event RideJoined(uint256 rideId, address passenger);\r\n\r\n    function createRide(uint256 _availableSeats, uint256 _pricePerSeat) external {\r\n        require(_availableSeats > 0, \"Invalid number of available seats\");\r\n        require(_pricePerSeat > 0, \"Invalid price per seat\");\r\n\r\n        rideCount++;\r\n        rides[rideCount] = Ride(msg.sender, _availableSeats, _pricePerSeat);\r\n\r\n        emit RideCreated(rideCount, msg.sender, _availableSeats, _pricePerSeat);\r\n    }\r\n\r\n    function joinRide(uint256 _rideId) external payable {\r\n        require(_rideId > 0 && _rideId <= rideCount, \"Invalid ride ID\");\r\n        Ride storage ride = rides[_rideId];\r\n        require(ride.availableSeats > 0, \"No available seats\");\r\n        require(!ride.passengers[msg.sender], \"Already joined this ride\");\r\n        require(msg.value == ride.pricePerSeat, \"Incorrect payment amount\");\r\n\r\n        ride.availableSeats--;\r\n        ride.passengers[msg.sender] = true;\r\n\r\n        emit RideJoined(_rideId, msg.sender);\r\n    }\r\n}",
  "sourcePath": "C:\\Users\\LENOVO\\OneDrive\\Desktop\\carpooling\\Web3Carpool\\contracts\\ShareARide.sol",
  "compiler": {
    "name": "solc",
    "version": "0.5.16+commit.9c3226ce.Emscripten.clang"
  },
  "schemaVersion": "3.4.16",
  "updatedAt": "2024-08-08T06:21:03.981Z",
  "devdoc": {
    "methods": {}
  },
  "userdoc": {
    "methods": {}
  }
}