{
  "contractName": "ShareARideContract",
  "abi": [
    {
      "anonymous": false,
      "inputs": [
        {
          "indexed": false,
          "internalType": "uint256",
          "name": "rideId",
          "type": "uint256"
        },
        {
          "indexed": false,
          "internalType": "address payable",
          "name": "driver",
          "type": "address"
        },
        {
          "indexed": false,
          "internalType": "string",
          "name": "origin",
          "type": "string"
        },
        {
          "indexed": false,
          "internalType": "string",
          "name": "destination",
          "type": "string"
        },
        {
          "indexed": false,
          "internalType": "string",
          "name": "departureDate",
          "type": "string"
        },
        {
          "indexed": false,
          "internalType": "uint256",
          "name": "departureTime",
          "type": "uint256"
        },
        {
          "indexed": false,
          "internalType": "uint256",
          "name": "seatLimit",
          "type": "uint256"
        },
        {
          "indexed": false,
          "internalType": "uint256",
          "name": "availableSeats",
          "type": "uint256"
        },
        {
          "indexed": false,
          "internalType": "uint256",
          "name": "pricePerSeat",
          "type": "uint256"
        }
      ],
      "name": "RideCreated",
      "type": "event"
    },
    {
      "anonymous": false,
      "inputs": [
        {
          "indexed": false,
          "internalType": "uint256",
          "name": "rideId",
          "type": "uint256"
        },
        {
          "indexed": false,
          "internalType": "address payable",
          "name": "driver",
          "type": "address"
        },
        {
          "indexed": false,
          "internalType": "string",
          "name": "origin",
          "type": "string"
        },
        {
          "indexed": false,
          "internalType": "string",
          "name": "destination",
          "type": "string"
        },
        {
          "indexed": false,
          "internalType": "string",
          "name": "departureDate",
          "type": "string"
        },
        {
          "indexed": false,
          "internalType": "uint256",
          "name": "departureTime",
          "type": "uint256"
        },
        {
          "indexed": false,
          "internalType": "uint256",
          "name": "seatLimit",
          "type": "uint256"
        },
        {
          "indexed": false,
          "internalType": "uint256",
          "name": "availableSeats",
          "type": "uint256"
        },
        {
          "indexed": false,
          "internalType": "uint256",
          "name": "pricePerSeat",
          "type": "uint256"
        }
      ],
      "name": "RideRequested",
      "type": "event"
    },
    {
      "constant": true,
      "inputs": [
        {
          "internalType": "uint256",
          "name": "",
          "type": "uint256"
        }
      ],
      "name": "rides",
      "outputs": [
        {
          "internalType": "uint256",
          "name": "rideId",
          "type": "uint256"
        },
        {
          "internalType": "address payable",
          "name": "driver",
          "type": "address"
        },
        {
          "internalType": "string",
          "name": "origin",
          "type": "string"
        },
        {
          "internalType": "string",
          "name": "destination",
          "type": "string"
        },
        {
          "internalType": "string",
          "name": "departureDate",
          "type": "string"
        },
        {
          "internalType": "uint256",
          "name": "departureTime",
          "type": "uint256"
        },
        {
          "internalType": "uint256",
          "name": "seatLimit",
          "type": "uint256"
        },
        {
          "internalType": "uint256",
          "name": "availableSeats",
          "type": "uint256"
        },
        {
          "internalType": "uint256",
          "name": "pricePerSeat",
          "type": "uint256"
        }
      ],
      "payable": false,
      "stateMutability": "view",
      "type": "function"
    },
    {
      "constant": true,
      "inputs": [],
      "name": "ridesCount",
      "outputs": [
        {
          "internalType": "uint256",
          "name": "",
          "type": "uint256"
        }
      ],
      "payable": false,
      "stateMutability": "view",
      "type": "function"
    },
    {
      "constant": false,
      "inputs": [
        {
          "internalType": "string",
          "name": "_origin",
          "type": "string"
        },
        {
          "internalType": "string",
          "name": "_destination",
          "type": "string"
        },
        {
          "internalType": "string",
          "name": "_departureDate",
          "type": "string"
        },
        {
          "internalType": "uint256",
          "name": "_departureTime",
          "type": "uint256"
        },
        {
          "internalType": "uint256",
          "name": "_seatLimit",
          "type": "uint256"
        },
        {
          "internalType": "uint256",
          "name": "_availableSeats",
          "type": "uint256"
        },
        {
          "internalType": "uint256",
          "name": "_pricePerSeat",
          "type": "uint256"
        }
      ],
      "name": "createRide",
      "outputs": [],
      "payable": false,
      "stateMutability": "nonpayable",
      "type": "function"
    },
    {
      "constant": true,
      "inputs": [],
      "name": "getRidesCount",
      "outputs": [
        {
          "internalType": "uint256",
          "name": "",
          "type": "uint256"
        }
      ],
      "payable": false,
      "stateMutability": "view",
      "type": "function"
    },
    {
      "constant": false,
      "inputs": [
        {
          "internalType": "uint256",
          "name": "_id",
          "type": "uint256"
        }
      ],
      "name": "requestRide",
      "outputs": [],
      "payable": true,
      "stateMutability": "payable",
      "type": "function"
    }
  ],
  "bytecode": "0x60806040526000805534801561001457600080fd5b50611210806100246000396000f3fe60806040526004361061004a5760003560e01c80631bcda7771461004f5780635205f1121461007a5780639327b0771461025c578063e0f1b7121461028a578063e675678e146104a8575b600080fd5b34801561005b57600080fd5b506100646104d3565b6040518082815260200191505060405180910390f35b34801561008657600080fd5b506100b36004803603602081101561009d57600080fd5b81019080803590602001909291905050506104d9565b604051808a81526020018973ffffffffffffffffffffffffffffffffffffffff1673ffffffffffffffffffffffffffffffffffffffff16815260200180602001806020018060200188815260200187815260200186815260200185815260200184810384528b818151815260200191508051906020019080838360005b8381101561014b578082015181840152602081019050610130565b50505050905090810190601f1680156101785780820380516001836020036101000a031916815260200191505b5084810383528a818151815260200191508051906020019080838360005b838110156101b1578082015181840152602081019050610196565b50505050905090810190601f1680156101de5780820380516001836020036101000a031916815260200191505b50848103825289818151815260200191508051906020019080838360005b838110156102175780820151818401526020810190506101fc565b50505050905090810190601f1680156102445780820380516001836020036101000a031916815260200191505b509c5050505050505050505050505060405180910390f35b6102886004803603602081101561027257600080fd5b810190808035906020019092919050505061070f565b005b34801561029657600080fd5b506104a6600480360360e08110156102ad57600080fd5b81019080803590602001906401000000008111156102ca57600080fd5b8201836020820111156102dc57600080fd5b803590602001918460018302840111640100000000831117156102fe57600080fd5b91908080601f016020809104026020016040519081016040528093929190818152602001838380828437600081840152601f19601f8201169050808301925050505050505091929192908035906020019064010000000081111561036157600080fd5b82018360208201111561037357600080fd5b8035906020019184600183028401116401000000008311171561039557600080fd5b91908080601f016020809104026020016040519081016040528093929190818152602001838380828437600081840152601f19601f820116905080830192505050505050509192919290803590602001906401000000008111156103f857600080fd5b82018360208201111561040a57600080fd5b8035906020019184600183028401116401000000008311171561042c57600080fd5b91908080601f016020809104026020016040519081016040528093929190818152602001838380828437600081840152601f19601f82011690508083019250505050505050919291929080359060200190929190803590602001909291908035906020019092919080359060200190929190505050610d9d565b005b3480156104b457600080fd5b506104bd6110cb565b6040518082815260200191505060405180910390f35b60005481565b60016020528060005260406000206000915090508060000154908060010160009054906101000a900473ffffffffffffffffffffffffffffffffffffffff1690806002018054600181600116156101000203166002900480601f0160208091040260200160405190810160405280929190818152602001828054600181600116156101000203166002900480156105b15780601f10610586576101008083540402835291602001916105b1565b820191906000526020600020905b81548152906001019060200180831161059457829003601f168201915b505050505090806003018054600181600116156101000203166002900480601f01602080910402602001604051908101604052809291908181526020018280546001816001161561010002031660029004801561064f5780601f106106245761010080835404028352916020019161064f565b820191906000526020600020905b81548152906001019060200180831161063257829003601f168201915b505050505090806004018054600181600116156101000203166002900480601f0160208091040260200160405190810160405280929190818152602001828054600181600116156101000203166002900480156106ed5780601f106106c2576101008083540402835291602001916106ed565b820191906000526020600020905b8154815290600101906020018083116106d057829003601f168201915b5050505050908060050154908060060154908060070154908060080154905089565b6107176110d4565b6001600083815260200190815260200160002060405180610120016040529081600082015481526020016001820160009054906101000a900473ffffffffffffffffffffffffffffffffffffffff1673ffffffffffffffffffffffffffffffffffffffff1673ffffffffffffffffffffffffffffffffffffffff168152602001600282018054600181600116156101000203166002900480601f01602080910402602001604051908101604052809291908181526020018280546001816001161561010002031660029004801561082f5780601f106108045761010080835404028352916020019161082f565b820191906000526020600020905b81548152906001019060200180831161081257829003601f168201915b50505050508152602001600382018054600181600116156101000203166002900480601f0160208091040260200160405190810160405280929190818152602001828054600181600116156101000203166002900480156108d15780601f106108a6576101008083540402835291602001916108d1565b820191906000526020600020905b8154815290600101906020018083116108b457829003601f168201915b50505050508152602001600482018054600181600116156101000203166002900480601f0160208091040260200160405190810160405280929190818152602001828054600181600116156101000203166002900480156109735780601f1061094857610100808354040283529160200191610973565b820191906000526020600020905b81548152906001019060200180831161095657829003601f168201915b50505050508152602001600582015481526020016006820154815260200160078201548152602001600882015481525050905060008160e0015111610a20576040517f08c379a00000000000000000000000000000000000000000000000000000000081526004018080602001828103825260128152602001807f4e6f20617661696c61626c65207365617473000000000000000000000000000081525060200191505060405180910390fd5b806020015173ffffffffffffffffffffffffffffffffffffffff163373ffffffffffffffffffffffffffffffffffffffff161415610ac6576040517f08c379a00000000000000000000000000000000000000000000000000000000081526004018080602001828103825260128152602001807f596f75206172652074686520647269766572000000000000000000000000000081525060200191505060405180910390fd5b806101000151341015610b41576040517f08c379a000000000000000000000000000000000000000000000000000000000815260040180806020018281038252600f8152602001807f4e6f20656e6f7567682066756e6473000000000000000000000000000000000081525060200191505060405180910390fd5b806020015173ffffffffffffffffffffffffffffffffffffffff166108fc8261010001519081150290604051600060405180830381858888f19350505050158015610b90573d6000803e3d6000fd5b508060e001805180919060019003815250507fd4711b20dabe015112ab083514b5704d83f9b895d4ef83e01384ddaa7e792d67816000015182602001518360400151846060015185608001518660a001518760c001518860e00151896101000151604051808a81526020018973ffffffffffffffffffffffffffffffffffffffff1673ffffffffffffffffffffffffffffffffffffffff16815260200180602001806020018060200188815260200187815260200186815260200185815260200184810384528b818151815260200191508051906020019080838360005b83811015610c89578082015181840152602081019050610c6e565b50505050905090810190601f168015610cb65780820380516001836020036101000a031916815260200191505b5084810383528a818151815260200191508051906020019080838360005b83811015610cef578082015181840152602081019050610cd4565b50505050905090810190601f168015610d1c5780820380516001836020036101000a031916815260200191505b50848103825289818151815260200191508051906020019080838360005b83811015610d55578082015181840152602081019050610d3a565b50505050905090810190601f168015610d825780820380516001836020036101000a031916815260200191505b509c5050505050505050505050505060405180910390a15050565b600080815480929190600101919050555060405180610120016040528060005481526020013373ffffffffffffffffffffffffffffffffffffffff1681526020018881526020018781526020018681526020018581526020018481526020018381526020018281525060016000805481526020019081526020016000206000820151816000015560208201518160010160006101000a81548173ffffffffffffffffffffffffffffffffffffffff021916908373ffffffffffffffffffffffffffffffffffffffff1602179055506040820151816002019080519060200190610e87929190611136565b506060820151816003019080519060200190610ea4929190611136565b506080820151816004019080519060200190610ec1929190611136565b5060a0820151816005015560c0820151816006015560e0820151816007015561010082015181600801559050507f0356de66887755b98925631c925a2fedfd3be295d1f920dd93cba7a7e812a50c6000543389898989898989604051808a81526020018973ffffffffffffffffffffffffffffffffffffffff1673ffffffffffffffffffffffffffffffffffffffff16815260200180602001806020018060200188815260200187815260200186815260200185815260200184810384528b818151815260200191508051906020019080838360005b83811015610fb2578082015181840152602081019050610f97565b50505050905090810190601f168015610fdf5780820380516001836020036101000a031916815260200191505b5084810383528a818151815260200191508051906020019080838360005b83811015611018578082015181840152602081019050610ffd565b50505050905090810190601f1680156110455780820380516001836020036101000a031916815260200191505b50848103825289818151815260200191508051906020019080838360005b8381101561107e578082015181840152602081019050611063565b50505050905090810190601f1680156110ab5780820380516001836020036101000a031916815260200191505b509c5050505050505050505050505060405180910390a150505050505050565b60008054905090565b60405180610120016040528060008152602001600073ffffffffffffffffffffffffffffffffffffffff168152602001606081526020016060815260200160608152602001600081526020016000815260200160008152602001600081525090565b828054600181600116156101000203166002900490600052602060002090601f016020900481019282601f1061117757805160ff19168380011785556111a5565b828001600101855582156111a5579182015b828111156111a4578251825591602001919060010190611189565b5b5090506111b291906111b6565b5090565b6111d891905b808211156111d45760008160009055506001016111bc565b5090565b9056fea265627a7a723158209e9e361f2b3ac76ec1e5d16fa5a4133f4a790a60988418b5d1affb724e80954f64736f6c63430005100032",
  "source": "// SPDX-License-Identifier: MIT\npragma solidity ^0.5.11;\n\ncontract ShareARideContract {\n    struct Ride {\n        uint rideId;\n        address payable driver;\n        string origin;\n        string destination;\n        string departureDate;\n        uint256 departureTime;\n        uint256 seatLimit;\n        uint256 availableSeats;\n        uint256 pricePerSeat;\n    }\n\n    // Ride[] public rides;\n    uint public ridesCount = 0;\n    mapping(uint => Ride) public rides;\n\n\n    // Ride Creation Event\n\n    event RideCreated(\n        uint rideId,\n        address payable driver,\n        string origin,\n        string destination,\n        string departureDate,\n        uint256 departureTime,\n        uint256 seatLimit,\n        uint256 availableSeats,\n        uint256 pricePerSeat\n    );\n\n    event RideRequested(\n        uint rideId,\n        address payable driver,\n        string origin,\n        string destination,\n        string departureDate,\n        uint departureTime,\n        uint seatLimit,\n        uint availableSeats,\n        uint pricePerSeat\n    );\n\n    function createRide(\n        string memory _origin,\n        string memory _destination,\n        string memory _departureDate,\n        uint _departureTime,\n        uint _seatLimit,\n        uint _availableSeats,\n        uint _pricePerSeat\n        ) public {\n\n        ridesCount ++;\n        rides[ridesCount] = Ride(\n            ridesCount,\n            msg.sender,\n            _origin,\n            _destination,\n            _departureDate,\n            _departureTime,\n            _seatLimit,\n            _availableSeats,\n            _pricePerSeat\n        );\n        \n        emit RideCreated(\n            ridesCount,\n            msg.sender,\n            _origin,\n            _destination,\n            _departureDate,\n            _departureTime,\n            _seatLimit,\n            _availableSeats,\n            _pricePerSeat\n        );\n\n\n    }\n\n    function getRidesCount() public view returns (uint) {\n        // return rides.length;\n        return ridesCount;\n    }\n\n    function requestRide(uint _id)  public payable {\n        //Fetch RIde\n        Ride memory _ride = rides[_id];\n        //Check if ride is available\n        require(_ride.availableSeats > 0, \"No available seats\");\n        //Check if user is not the driver\n        require(msg.sender != _ride.driver, \"You are the driver\");\n        //Check if user has enough funds\n        require(msg.value >= _ride.pricePerSeat, \"No enough funds\");\n\n        //Transfer money to driver\n        _ride.driver.transfer(_ride.pricePerSeat);\n        //Decrement available seats\n        _ride.availableSeats--;\n        \n\n        emit RideRequested(\n            _ride.rideId,\n            _ride.driver,\n            _ride.origin,\n            _ride.destination,\n            _ride.departureDate,\n            _ride.departureTime,\n            _ride.seatLimit,\n            _ride.availableSeats,\n            _ride.pricePerSeat\n        );\n\n    }\n\n    // function getRide()\n    //     public\n    //     view\n    //     returns (\n    //         uint,\n    //         address,\n    //         string memory,\n    //         string memory,\n    //         string memory,\n    //         uint256,\n    //         uint256,\n    //         uint256,\n    //         uint256\n    //     )\n    // {\n    //     Ride memory ride = rides[_index - 1];\n    //     return (\n    //         ride.rideId,\n    //         ride.driver,\n    //         ride.origin,\n    //         ride.destination,\n    //         ride.departureDate,\n    //         ride.departureTime,\n    //         ride.seatLimit,\n    //         ride.availableSeats,\n    //         ride.pricePerSeat\n    //     );\n    // }\n\n    // function bookSeat(uint256 _index) public payable {\n    //     Ride storage ride = rides[_index];\n    //     require(ride.availableSeats > 0, \"No available seats\");\n    //     require(msg.value == ride.pricePerSeat, \"Invalid price\");\n    //     ride.availableSeats--;\n    //     ride.driver.transfer(msg.value);\n    // }\n}",
  "sourcePath": "C:\\Users\\agnel\\OneDrive\\Documents\\Code\\Blockchain\\Web3Carpool\\Web3Carpool\\contracts\\ShareARideContract.sol",
  "compiler": {
    "name": "solc",
    "version": "0.5.16+commit.9c3226ce.Emscripten.clang"
  },
  "schemaVersion": "3.4.16",
  "updatedAt": "2024-08-09T19:29:57.011Z",
  "devdoc": {
    "methods": {}
  },
  "userdoc": {
    "methods": {}
  }
}